:100000000C9450000C945A000C945A000C945A0012
:100010000C945A000C945A000C945A000C945A00F8
:100020000C945A000C945A000C945A000C945A00E8
:100030000C945A000C945A000C945A000C945A00D8
:100040000C945A000C945A000C945A000C945A00C8
:100050000C945A000C945A000C945A000C945A00B8
:100060000C945A000C945A000C945A000C945A00A8
:100070000C945A000C945A000C945A000C945A0098
:100080000C945A000C945A000C945A000C945A0088
:100090000C945A000C945A000C945A000C945A0078
:1000A00011241FBECFEFCDBFDFE3DEBF0E945C0097
:1000B0000C947F000C9400002FE936E881E0215079
:1000C00030408040E1F700C0000080E28093A60449
:1000D0008093A1049FE121EA37E091502040304015
:1000E000E1F700C000008093A2049FE926E831E018
:1000F000915020403040E1F700C00000E9CFF89473
:02010000FFCF2F
:00000001FF
